{
  "_format": "hh-sol-artifact-1",
  "contractName": "TimeStamp",
  "sourceName": "src/contracts/TimeStamp.sol",
  "abi": [
    {
      "anonymous": false,
      "inputs": [
        {
          "indexed": true,
          "internalType": "bytes32",
          "name": "hash",
          "type": "bytes32"
        },
        {
          "indexed": false,
          "internalType": "uint256",
          "name": "timestamp",
          "type": "uint256"
        },
        {
          "indexed": false,
          "internalType": "address",
          "name": "owner",
          "type": "address"
        }
      ],
      "name": "DocumentTimestamped",
      "type": "event"
    },
    {
      "inputs": [
        {
          "internalType": "bytes32",
          "name": "",
          "type": "bytes32"
        }
      ],
      "name": "documents",
      "outputs": [
        {
          "internalType": "bytes32",
          "name": "hash",
          "type": "bytes32"
        },
        {
          "internalType": "uint256",
          "name": "timestamp",
          "type": "uint256"
        },
        {
          "internalType": "address",
          "name": "owner",
          "type": "address"
        }
      ],
      "stateMutability": "view",
      "type": "function"
    },
    {
      "inputs": [
        {
          "internalType": "bytes32",
          "name": "_hash",
          "type": "bytes32"
        }
      ],
      "name": "timestampDocument",
      "outputs": [],
      "stateMutability": "nonpayable",
      "type": "function"
    },
    {
      "inputs": [
        {
          "internalType": "bytes32",
          "name": "_hash",
          "type": "bytes32"
        }
      ],
      "name": "verifyDocument",
      "outputs": [
        {
          "internalType": "uint256",
          "name": "",
          "type": "uint256"
        }
      ],
      "stateMutability": "view",
      "type": "function"
    }
  ],
  "bytecode": "0x608060405234801561001057600080fd5b50610462806100206000396000f3fe608060405234801561001057600080fd5b50600436106100415760003560e01c80632b2805db14610046578063935d575314610078578063fe35089f14610094575b600080fd5b610060600480360381019061005b919061029e565b6100c4565b60405161006f93929190610334565b60405180910390f35b610092600480360381019061008d919061029e565b61010e565b005b6100ae60048036038101906100a9919061029e565b610244565b6040516100bb919061036b565b60405180910390f35b60006020528060005260406000206000915090508060000154908060010154908060020160009054906101000a900473ffffffffffffffffffffffffffffffffffffffff16905083565b60008060008381526020019081526020016000206001015414610166576040517f08c379a000000000000000000000000000000000000000000000000000000000815260040161015d906103e3565b60405180910390fd5b60405180606001604052808281526020014281526020013373ffffffffffffffffffffffffffffffffffffffff16815250600080838152602001908152602001600020600082015181600001556020820151816001015560408201518160020160006101000a81548173ffffffffffffffffffffffffffffffffffffffff021916908373ffffffffffffffffffffffffffffffffffffffff160217905550905050807fab7c189b049f7538a7e1445c44f2da43482bce76a018aed2242f799e47867a424233604051610239929190610403565b60405180910390a250565b6000806000838152602001908152602001600020600101549050919050565b600080fd5b6000819050919050565b61027b81610268565b811461028657600080fd5b50565b60008135905061029881610272565b92915050565b6000602082840312156102b4576102b3610263565b5b60006102c284828501610289565b91505092915050565b6102d481610268565b82525050565b6000819050919050565b6102ed816102da565b82525050565b600073ffffffffffffffffffffffffffffffffffffffff82169050919050565b600061031e826102f3565b9050919050565b61032e81610313565b82525050565b600060608201905061034960008301866102cb565b61035660208301856102e4565b6103636040830184610325565b949350505050565b600060208201905061038060008301846102e4565b92915050565b600082825260208201905092915050565b7f446f63756d656e7420616c72656164792074696d657374616d70656400000000600082015250565b60006103cd601c83610386565b91506103d882610397565b602082019050919050565b600060208201905081810360008301526103fc816103c0565b9050919050565b600060408201905061041860008301856102e4565b6104256020830184610325565b939250505056fea26469706673582212202c07527fb4b3c3d6a05f38e132e19501a4b81387c521dcffa8c27dd66b756cbe64736f6c63430008130033",
  "linkReferences": {},
  "deployedLinkReferences": {}
}